:0100000001FE
:0100010002FC
:0100020003FA
:0100030004F8
:0100040005F6
:0100050006F4
:0100060007F2
:0100070008F0
:0100080009EE
:0100090001F5
:01000A0002F3
:01000B0003F1
:01000C0004EF
:01000D0005ED
:01000E0006EB
:01000F0007E9
:0100100000EF
:0100110000EE
:0100120000ED
:0100130000EC
:0100140000EB
:0100150000EA
:0100160000E9
:0100170000E8
:0100180002E5
:0100190002E4
:01001A0002E3
:01001B0002E2
:01001C0002E1
:01001D0002E0
:01001E0002DF
:01001F0002DE
:0100200002DD
:0100210002DC
:0100220002DB
:0100230002DA
:0100240002D9
:0100250002D8
:0100260002D7
:0100270002D6
:0100280002D5
:0100290002D4
:01002A0002D3
:01002B0002D2
:01002C0002D1
:01002D0002D0
:01002E0002CF
:01002F0002CE
:0100300002CD
:0100310002CC
:0100320002CB
:0100330002CA
:0100340002C9
:0100350002C8
:0100360002C7
:0100370002C6
:0100380002C5
:0100390002C4
:01003A0002C3
:01003B0002C2
:01003C0002C1
:01003D0002C0
:01003E0002BF
:01003F0002BE
:0100400002BD
:0100410002BC
:0100420002BB
:0100430002BA
:0100440002B9
:0100450002B8
:0100460002B7
:0100470002B6
:0100480002B5
:0100490002B4
:01004A0002B3
:01004B0002B2
:01004C0002B1
:01004D0002B0
:01004E0002AF
:01004F0002AE
:0100500002AD
:0100510002AC
:0100520002AB
:0100530002AA
:0100540002A9
:0100550002A8
:0100560002A7
:0100570002A6
:0100580002A5
:0100590002A4
:01005A0002A3
:01005B0002A2
:01005C0002A1
:01005D0002A0
:01005E00029F
:01005F00029E
:01006000029D
:01006100029C
:01006200029B
:01006300029A
:010064000299
:010065000298
:010066000297
:010067000296
:010068000295
:010069000294
:01006A000293
:01006B000292
:01006C000291
:01006D000290
:01006E00028F
:01006F00028E
:01007000028D
:01007100028C
:01007200028B
:01007300028A
:010074000289
:010075000288
:010076000287
:010077000286
:010078000285
:010079000284
:01007A000283
:01007B000282
:01007C000281
:01007D000280
:01007E00027F
:01007F00027E
:00000001FF
